{
  "_format": "hh-sol-artifact-1",
  "contractName": "FileRegistry",
  "sourceName": "contracts/FileRegistry.sol",
  "abi": [
    {
      "anonymous": false,
      "inputs": [
        {
          "indexed": true,
          "internalType": "string",
          "name": "cid",
          "type": "string"
        },
        {
          "indexed": true,
          "internalType": "address",
          "name": "to",
          "type": "address"
        }
      ],
      "name": "AccessRevoked",
      "type": "event"
    },
    {
      "anonymous": false,
      "inputs": [
        {
          "indexed": true,
          "internalType": "string",
          "name": "cid",
          "type": "string"
        },
        {
          "indexed": true,
          "internalType": "address",
          "name": "from",
          "type": "address"
        },
        {
          "indexed": true,
          "internalType": "address",
          "name": "to",
          "type": "address"
        }
      ],
      "name": "AccessShared",
      "type": "event"
    },
    {
      "anonymous": false,
      "inputs": [
        {
          "indexed": true,
          "internalType": "address",
          "name": "owner",
          "type": "address"
        },
        {
          "indexed": false,
          "internalType": "string",
          "name": "cid",
          "type": "string"
        },
        {
          "indexed": false,
          "internalType": "uint256",
          "name": "timestamp",
          "type": "uint256"
        }
      ],
      "name": "FileAnchored",
      "type": "event"
    },
    {
      "inputs": [
        {
          "internalType": "string",
          "name": "_cid",
          "type": "string"
        }
      ],
      "name": "anchorFile",
      "outputs": [],
      "stateMutability": "nonpayable",
      "type": "function"
    },
    {
      "inputs": [
        {
          "internalType": "string",
          "name": "_cid",
          "type": "string"
        }
      ],
      "name": "getOwner",
      "outputs": [
        {
          "internalType": "address",
          "name": "",
          "type": "address"
        }
      ],
      "stateMutability": "view",
      "type": "function"
    },
    {
      "inputs": [
        {
          "internalType": "string",
          "name": "_cid",
          "type": "string"
        },
        {
          "internalType": "address",
          "name": "_user",
          "type": "address"
        }
      ],
      "name": "hasAccess",
      "outputs": [
        {
          "internalType": "bool",
          "name": "",
          "type": "bool"
        }
      ],
      "stateMutability": "view",
      "type": "function"
    },
    {
      "inputs": [
        {
          "internalType": "string",
          "name": "_cid",
          "type": "string"
        },
        {
          "internalType": "address",
          "name": "_guest",
          "type": "address"
        }
      ],
      "name": "revokeAccess",
      "outputs": [],
      "stateMutability": "nonpayable",
      "type": "function"
    },
    {
      "inputs": [
        {
          "internalType": "string",
          "name": "_cid",
          "type": "string"
        },
        {
          "internalType": "address",
          "name": "_guest",
          "type": "address"
        }
      ],
      "name": "shareFile",
      "outputs": [],
      "stateMutability": "nonpayable",
      "type": "function"
    }
  ],
  "bytecode": "0x608060405234801561001057600080fd5b506108e4806100206000396000f3fe608060405234801561001057600080fd5b50600436106100575760003560e01c806313bd20e21461005c5780634aaf4a1214610084578063979b16fc146100af578063dfe0b5fe146100c4578063ebceb82c146100d7575b600080fd5b61006f61006a36600461064f565b6100ea565b60405190151581526020015b60405180910390f35b6100976100923660046106ad565b61016d565b6040516001600160a01b03909116815260200161007b565b6100c26100bd3660046106ad565b61020a565b005b6100c26100d236600461064f565b61034f565b6100c26100e536600461064f565b610459565b6000816001600160a01b0316600084604051610106919061070e565b908152604051908190036020019020546001600160a01b03160361012c57506001610167565b60018360405161013c919061070e565b90815260408051602092819003830190206001600160a01b0385166000908152925290205460ff1690505b92915050565b6000808260405161017e919061070e565b9081526040519081900360200190206003015460ff166101db5760405162461bcd60e51b8152602060048201526013602482015272119a5b1948191bd95cc81b9bdd08195e1a5cdd606a1b60448201526064015b60405180910390fd5b6000826040516101eb919061070e565b908152604051908190036020019020546001600160a01b031692915050565b60008160405161021a919061070e565b9081526040519081900360200190206003015460ff161561027d5760405162461bcd60e51b815260206004820152601760248201527f46696c6520616c7265616479207265676973746572656400000000000000000060448201526064016101d2565b604080516080810182523381526020810183905242818301526001606082015290516000906102ad90849061070e565b90815260405160209181900382019020825181546001600160a01b0319166001600160a01b039091161781559082015160018201906102ec90826107b3565b5060408281015160028301556060909201516003909101805460ff19169115159190911790555133907fedfc1c81aae63c84fb9103bf1571c3f0859755f82bd9fe6b32e3079400dcc1ff906103449084904290610873565b60405180910390a250565b336001600160a01b0316600083604051610369919061070e565b908152604051908190036020019020546001600160a01b0316146103cf5760405162461bcd60e51b815260206004820152601960248201527f4f6e6c7920746865206f776e65722063616e207265766f6b650000000000000060448201526064016101d2565b60006001836040516103e1919061070e565b90815260408051602092819003830181206001600160a01b03861660008181529190945291909120805460ff1916931515939093179092559061042590849061070e565b604051908190038120907fa4056635223780a71518e8c10b6fc0fd195775c8375c4841c124a959ae5c30ad90600090a35050565b336001600160a01b0316600083604051610473919061070e565b908152604051908190036020019020546001600160a01b0316146104d95760405162461bcd60e51b815260206004820152601860248201527f4f6e6c7920746865206f776e65722063616e207368617265000000000000000060448201526064016101d2565b6001600160a01b0381166105215760405162461bcd60e51b815260206004820152600f60248201526e496e76616c6964206164647265737360881b60448201526064016101d2565b60018083604051610532919061070e565b90815260408051602092819003830181206001600160a01b03861660008181529190945291909120805460ff19169315159390931790925590339061057890859061070e565b604051908190038120907f831a8f22b2ce98e3b9010cabe52f852a92c47f980e72cb9f9b7d3a1fc1c19af090600090a45050565b634e487b7160e01b600052604160045260246000fd5b600082601f8301126105d357600080fd5b813567ffffffffffffffff808211156105ee576105ee6105ac565b604051601f8301601f19908116603f01168101908282118183101715610616576106166105ac565b8160405283815286602085880101111561062f57600080fd5b836020870160208301376000602085830101528094505050505092915050565b6000806040838503121561066257600080fd5b823567ffffffffffffffff81111561067957600080fd5b610685858286016105c2565b92505060208301356001600160a01b03811681146106a257600080fd5b809150509250929050565b6000602082840312156106bf57600080fd5b813567ffffffffffffffff8111156106d657600080fd5b6106e2848285016105c2565b949350505050565b60005b838110156107055781810151838201526020016106ed565b50506000910152565b600082516107208184602087016106ea565b9190910192915050565b600181811c9082168061073e57607f821691505b60208210810361075e57634e487b7160e01b600052602260045260246000fd5b50919050565b601f8211156107ae57600081815260208120601f850160051c8101602086101561078b5750805b601f850160051c820191505b818110156107aa57828155600101610797565b5050505b505050565b815167ffffffffffffffff8111156107cd576107cd6105ac565b6107e1816107db845461072a565b84610764565b602080601f83116001811461081657600084156107fe5750858301515b600019600386901b1c1916600185901b1785556107aa565b600085815260208120601f198616915b8281101561084557888601518255948401946001909101908401610826565b50858210156108635787850151600019600388901b60f8161c191681555b5050505050600190811b01905550565b60408152600083518060408401526108928160608501602088016106ea565b602083019390935250601f91909101601f19160160600191905056fea2646970667358221220767a1e12a7c027a946db2d88a80ed73132843e7a67da9fc23467e9bb14244f7f64736f6c63430008130033",
  "linkReferences": {},
  "deployedLinkReferences": {}
}